{
  "contractName": "PortaloContract",
  "abi": [
    {
      "inputs": [
        {
          "components": [
            {
              "internalType": "string",
              "name": "profileAlias",
              "type": "string"
            },
            {
              "internalType": "address",
              "name": "owner",
              "type": "address"
            },
            {
              "internalType": "bool",
              "name": "exists",
              "type": "bool"
            },
            {
              "components": [
                {
                  "internalType": "string",
                  "name": "name",
                  "type": "string"
                },
                {
                  "internalType": "string",
                  "name": "entity",
                  "type": "string"
                },
                {
                  "internalType": "string",
                  "name": "portaloAddress",
                  "type": "string"
                }
              ],
              "internalType": "struct PortaloAddress[]",
              "name": "cryptoAddresses",
              "type": "tuple[]"
            },
            {
              "components": [
                {
                  "internalType": "string",
                  "name": "name",
                  "type": "string"
                },
                {
                  "internalType": "string",
                  "name": "entity",
                  "type": "string"
                },
                {
                  "internalType": "string",
                  "name": "portaloAddress",
                  "type": "string"
                }
              ],
              "internalType": "struct PortaloAddress[]",
              "name": "fiatAddresses",
              "type": "tuple[]"
            }
          ],
          "internalType": "struct Profile",
          "name": "profile",
          "type": "tuple"
        }
      ],
      "name": "addProfile",
      "outputs": [],
      "stateMutability": "nonpayable",
      "type": "function"
    },
    {
      "inputs": [
        {
          "components": [
            {
              "internalType": "string",
              "name": "profileAlias",
              "type": "string"
            },
            {
              "internalType": "address",
              "name": "owner",
              "type": "address"
            },
            {
              "internalType": "bool",
              "name": "exists",
              "type": "bool"
            },
            {
              "components": [
                {
                  "internalType": "string",
                  "name": "name",
                  "type": "string"
                },
                {
                  "internalType": "string",
                  "name": "entity",
                  "type": "string"
                },
                {
                  "internalType": "string",
                  "name": "portaloAddress",
                  "type": "string"
                }
              ],
              "internalType": "struct PortaloAddress[]",
              "name": "cryptoAddresses",
              "type": "tuple[]"
            },
            {
              "components": [
                {
                  "internalType": "string",
                  "name": "name",
                  "type": "string"
                },
                {
                  "internalType": "string",
                  "name": "entity",
                  "type": "string"
                },
                {
                  "internalType": "string",
                  "name": "portaloAddress",
                  "type": "string"
                }
              ],
              "internalType": "struct PortaloAddress[]",
              "name": "fiatAddresses",
              "type": "tuple[]"
            }
          ],
          "internalType": "struct Profile",
          "name": "profile",
          "type": "tuple"
        }
      ],
      "name": "updateProfile",
      "outputs": [],
      "stateMutability": "nonpayable",
      "type": "function"
    },
    {
      "inputs": [],
      "name": "getAddressProfiles",
      "outputs": [
        {
          "components": [
            {
              "internalType": "string",
              "name": "profileAlias",
              "type": "string"
            },
            {
              "internalType": "address",
              "name": "owner",
              "type": "address"
            },
            {
              "internalType": "bool",
              "name": "exists",
              "type": "bool"
            },
            {
              "components": [
                {
                  "internalType": "string",
                  "name": "name",
                  "type": "string"
                },
                {
                  "internalType": "string",
                  "name": "entity",
                  "type": "string"
                },
                {
                  "internalType": "string",
                  "name": "portaloAddress",
                  "type": "string"
                }
              ],
              "internalType": "struct PortaloAddress[]",
              "name": "cryptoAddresses",
              "type": "tuple[]"
            },
            {
              "components": [
                {
                  "internalType": "string",
                  "name": "name",
                  "type": "string"
                },
                {
                  "internalType": "string",
                  "name": "entity",
                  "type": "string"
                },
                {
                  "internalType": "string",
                  "name": "portaloAddress",
                  "type": "string"
                }
              ],
              "internalType": "struct PortaloAddress[]",
              "name": "fiatAddresses",
              "type": "tuple[]"
            }
          ],
          "internalType": "struct Profile[]",
          "name": "",
          "type": "tuple[]"
        }
      ],
      "stateMutability": "view",
      "type": "function",
      "constant": true
    },
    {
      "inputs": [
        {
          "internalType": "string",
          "name": "profileAlias",
          "type": "string"
        }
      ],
      "name": "getProfile",
      "outputs": [
        {
          "components": [
            {
              "internalType": "string",
              "name": "profileAlias",
              "type": "string"
            },
            {
              "internalType": "address",
              "name": "owner",
              "type": "address"
            },
            {
              "internalType": "bool",
              "name": "exists",
              "type": "bool"
            },
            {
              "components": [
                {
                  "internalType": "string",
                  "name": "name",
                  "type": "string"
                },
                {
                  "internalType": "string",
                  "name": "entity",
                  "type": "string"
                },
                {
                  "internalType": "string",
                  "name": "portaloAddress",
                  "type": "string"
                }
              ],
              "internalType": "struct PortaloAddress[]",
              "name": "cryptoAddresses",
              "type": "tuple[]"
            },
            {
              "components": [
                {
                  "internalType": "string",
                  "name": "name",
                  "type": "string"
                },
                {
                  "internalType": "string",
                  "name": "entity",
                  "type": "string"
                },
                {
                  "internalType": "string",
                  "name": "portaloAddress",
                  "type": "string"
                }
              ],
              "internalType": "struct PortaloAddress[]",
              "name": "fiatAddresses",
              "type": "tuple[]"
            }
          ],
          "internalType": "struct Profile",
          "name": "",
          "type": "tuple"
        }
      ],
      "stateMutability": "view",
      "type": "function",
      "constant": true
    }
  ],
  "bytecode": "0x608060405234801561001057600080fd5b506123f1806100206000396000f3fe608060405234801561001057600080fd5b506004361061004c5760003560e01c80630de98693146100515780632f92a6db1461008157806366e7642a1461009d578063bed69bae146100b9575b600080fd5b61006b60048036038101906100669190611215565b6100d7565b60405161007891906114fb565b60405180910390f35b61009b60048036038101906100969190611541565b610679565b005b6100b760048036038101906100b29190611541565b610844565b005b6100c161099f565b6040516100ce91906116d0565b60405180910390f35b6100df6110bc565b600183836040516100f1929190611731565b908152602001604051809103902060010160149054906101000a900460ff1661011957600080fd5b6001838360405161012b929190611731565b90815260200160405180910390206040518060a001604052908160008201805461015490611779565b80601f016020809104026020016040519081016040528092919081815260200182805461018090611779565b80156101cd5780601f106101a2576101008083540402835291602001916101cd565b820191906000526020600020905b8154815290600101906020018083116101b057829003601f168201915b505050505081526020016001820160009054906101000a900473ffffffffffffffffffffffffffffffffffffffff1673ffffffffffffffffffffffffffffffffffffffff1673ffffffffffffffffffffffffffffffffffffffff1681526020016001820160149054906101000a900460ff1615151515815260200160028201805480602002602001604051908101604052809291908181526020016000905b82821015610454578382906000526020600020906003020160405180606001604052908160008201805461029f90611779565b80601f01602080910402602001604051908101604052809291908181526020018280546102cb90611779565b80156103185780601f106102ed57610100808354040283529160200191610318565b820191906000526020600020905b8154815290600101906020018083116102fb57829003601f168201915b5050505050815260200160018201805461033190611779565b80601f016020809104026020016040519081016040528092919081815260200182805461035d90611779565b80156103aa5780601f1061037f576101008083540402835291602001916103aa565b820191906000526020600020905b81548152906001019060200180831161038d57829003601f168201915b505050505081526020016002820180546103c390611779565b80601f01602080910402602001604051908101604052809291908181526020018280546103ef90611779565b801561043c5780601f106104115761010080835404028352916020019161043c565b820191906000526020600020905b81548152906001019060200180831161041f57829003601f168201915b5050505050815250508152602001906001019061026c565b50505050815260200160038201805480602002602001604051908101604052809291908181526020016000905b8282101561066957838290600052602060002090600302016040518060600160405290816000820180546104b490611779565b80601f01602080910402602001604051908101604052809291908181526020018280546104e090611779565b801561052d5780601f106105025761010080835404028352916020019161052d565b820191906000526020600020905b81548152906001019060200180831161051057829003601f168201915b5050505050815260200160018201805461054690611779565b80601f016020809104026020016040519081016040528092919081815260200182805461057290611779565b80156105bf5780601f10610594576101008083540402835291602001916105bf565b820191906000526020600020905b8154815290600101906020018083116105a257829003601f168201915b505050505081526020016002820180546105d890611779565b80601f016020809104026020016040519081016040528092919081815260200182805461060490611779565b80156106515780601f1061062657610100808354040283529160200191610651565b820191906000526020600020905b81548152906001019060200180831161063457829003601f168201915b50505050508152505081526020019060010190610481565b5050505081525050905092915050565b600181806000019061068b91906117b9565b604051610699929190611731565b908152602001604051809103902060010160149054906101000a900460ff16156106c257600080fd5b8060018280600001906106d591906117b9565b6040516106e3929190611731565b908152602001604051809103902081816106fd91906122a0565b90505033600182806000019061071391906117b9565b604051610721929190611731565b908152602001604051809103902060010160006101000a81548173ffffffffffffffffffffffffffffffffffffffff021916908373ffffffffffffffffffffffffffffffffffffffff16021790555060018082806000019061078391906117b9565b604051610791929190611731565b908152602001604051809103902060010160146101000a81548160ff0219169083151502179055506000803373ffffffffffffffffffffffffffffffffffffffff1673ffffffffffffffffffffffffffffffffffffffff16815260200190815260200160002081806000019061080791906117b9565b90918060018154018082558091505060019003906000526020600020016000909192909192909192909192509190610840929190611103565b5050565b600181806000019061085691906117b9565b604051610864929190611731565b908152602001604051809103902060010160149054906101000a900460ff1661088c57600080fd5b3373ffffffffffffffffffffffffffffffffffffffff1660018280600001906108b591906117b9565b6040516108c3929190611731565b908152602001604051809103902060010160009054906101000a900473ffffffffffffffffffffffffffffffffffffffff1673ffffffffffffffffffffffffffffffffffffffff161461091557600080fd5b80600182806000019061092891906117b9565b604051610936929190611731565b9081526020016040518091039020818161095091906122a0565b90505060018082806000019061096691906117b9565b604051610974929190611731565b908152602001604051809103902060010160146101000a81548160ff02191690831515021790555050565b606060008060003373ffffffffffffffffffffffffffffffffffffffff1673ffffffffffffffffffffffffffffffffffffffff16815260200190815260200160002080549050116109ef57600080fd5b60008060003373ffffffffffffffffffffffffffffffffffffffff1673ffffffffffffffffffffffffffffffffffffffff1681526020019081526020016000208054905067ffffffffffffffff811115610a4c57610a4b611856565b5b604051908082528060200260200182016040528015610a8557816020015b610a726110bc565b815260200190600190039081610a6a5790505b50905060005b6000803373ffffffffffffffffffffffffffffffffffffffff1673ffffffffffffffffffffffffffffffffffffffff168152602001908152602001600020805490508110156110b45760016000803373ffffffffffffffffffffffffffffffffffffffff1673ffffffffffffffffffffffffffffffffffffffff1681526020019081526020016000208281548110610b2657610b256122ae565b5b90600052602060002001604051610b3d919061235c565b90815260200160405180910390206040518060a0016040529081600082018054610b6690611779565b80601f0160208091040260200160405190810160405280929190818152602001828054610b9290611779565b8015610bdf5780601f10610bb457610100808354040283529160200191610bdf565b820191906000526020600020905b815481529060010190602001808311610bc257829003601f168201915b505050505081526020016001820160009054906101000a900473ffffffffffffffffffffffffffffffffffffffff1673ffffffffffffffffffffffffffffffffffffffff1673ffffffffffffffffffffffffffffffffffffffff1681526020016001820160149054906101000a900460ff1615151515815260200160028201805480602002602001604051908101604052809291908181526020016000905b82821015610e665783829060005260206000209060030201604051806060016040529081600082018054610cb190611779565b80601f0160208091040260200160405190810160405280929190818152602001828054610cdd90611779565b8015610d2a5780601f10610cff57610100808354040283529160200191610d2a565b820191906000526020600020905b815481529060010190602001808311610d0d57829003601f168201915b50505050508152602001600182018054610d4390611779565b80601f0160208091040260200160405190810160405280929190818152602001828054610d6f90611779565b8015610dbc5780601f10610d9157610100808354040283529160200191610dbc565b820191906000526020600020905b815481529060010190602001808311610d9f57829003601f168201915b50505050508152602001600282018054610dd590611779565b80601f0160208091040260200160405190810160405280929190818152602001828054610e0190611779565b8015610e4e5780601f10610e2357610100808354040283529160200191610e4e565b820191906000526020600020905b815481529060010190602001808311610e3157829003601f168201915b50505050508152505081526020019060010190610c7e565b50505050815260200160038201805480602002602001604051908101604052809291908181526020016000905b8282101561107b5783829060005260206000209060030201604051806060016040529081600082018054610ec690611779565b80601f0160208091040260200160405190810160405280929190818152602001828054610ef290611779565b8015610f3f5780601f10610f1457610100808354040283529160200191610f3f565b820191906000526020600020905b815481529060010190602001808311610f2257829003601f168201915b50505050508152602001600182018054610f5890611779565b80601f0160208091040260200160405190810160405280929190818152602001828054610f8490611779565b8015610fd15780601f10610fa657610100808354040283529160200191610fd1565b820191906000526020600020905b815481529060010190602001808311610fb457829003601f168201915b50505050508152602001600282018054610fea90611779565b80601f016020809104026020016040519081016040528092919081815260200182805461101690611779565b80156110635780601f1061103857610100808354040283529160200191611063565b820191906000526020600020905b81548152906001019060200180831161104657829003601f168201915b50505050508152505081526020019060010190610e93565b5050505081525050828281518110611096576110956122ae565b5b602002602001018190525080806110ac90612373565b915050610a8b565b508091505090565b6040518060a0016040528060608152602001600073ffffffffffffffffffffffffffffffffffffffff16815260200160001515815260200160608152602001606081525090565b82805461110f90611779565b90600052602060002090601f0160209004810192826111315760008555611178565b82601f1061114a57803560ff1916838001178555611178565b82800160010185558215611178579182015b8281111561117757823582559160200191906001019061115c565b5b5090506111859190611189565b5090565b5b808211156111a257600081600090555060010161118a565b5090565b600080fd5b600080fd5b600080fd5b600080fd5b600080fd5b60008083601f8401126111d5576111d46111b0565b5b8235905067ffffffffffffffff8111156111f2576111f16111b5565b5b60208301915083600182028301111561120e5761120d6111ba565b5b9250929050565b6000806020838503121561122c5761122b6111a6565b5b600083013567ffffffffffffffff81111561124a576112496111ab565b5b611256858286016111bf565b92509250509250929050565b600081519050919050565b600082825260208201905092915050565b60005b8381101561129c578082015181840152602081019050611281565b838111156112ab576000848401525b50505050565b6000601f19601f8301169050919050565b60006112cd82611262565b6112d7818561126d565b93506112e781856020860161127e565b6112f0816112b1565b840191505092915050565b600073ffffffffffffffffffffffffffffffffffffffff82169050919050565b6000611326826112fb565b9050919050565b6113368161131b565b82525050565b60008115159050919050565b6113518161133c565b82525050565b600081519050919050565b600082825260208201905092915050565b6000819050602082019050919050565b600060608301600083015184820360008601526113a082826112c2565b915050602083015184820360208601526113ba82826112c2565b915050604083015184820360408601526113d482826112c2565b9150508091505092915050565b60006113ed8383611383565b905092915050565b6000602082019050919050565b600061140d82611357565b6114178185611362565b93508360208202850161142985611373565b8060005b85811015611465578484038952815161144685826113e1565b9450611451836113f5565b925060208a0199505060018101905061142d565b50829750879550505050505092915050565b600060a083016000830151848203600086015261149482826112c2565b91505060208301516114a9602086018261132d565b5060408301516114bc6040860182611348565b50606083015184820360608601526114d48282611402565b915050608083015184820360808601526114ee8282611402565b9150508091505092915050565b600060208201905081810360008301526115158184611477565b905092915050565b600080fd5b600060a082840312156115385761153761151d565b5b81905092915050565b600060208284031215611557576115566111a6565b5b600082013567ffffffffffffffff811115611575576115746111ab565b5b61158184828501611522565b91505092915050565b600081519050919050565b600082825260208201905092915050565b6000819050602082019050919050565b600060a08301600083015184820360008601526115d382826112c2565b91505060208301516115e8602086018261132d565b5060408301516115fb6040860182611348565b50606083015184820360608601526116138282611402565b9150506080830151848203608086015261162d8282611402565b9150508091505092915050565b600061164683836115b6565b905092915050565b6000602082019050919050565b60006116668261158a565b6116708185611595565b935083602082028501611682856115a6565b8060005b858110156116be578484038952815161169f858261163a565b94506116aa8361164e565b925060208a01995050600181019050611686565b50829750879550505050505092915050565b600060208201905081810360008301526116ea818461165b565b905092915050565b600081905092915050565b82818337600083830152505050565b600061171883856116f2565b93506117258385846116fd565b82840190509392505050565b600061173e82848661170c565b91508190509392505050565b7f4e487b7100000000000000000000000000000000000000000000000000000000600052602260045260246000fd5b6000600282049050600182168061179157607f821691505b6020821081036117a4576117a361174a565b5b50919050565b600080fd5b600080fd5b600080fd5b600080833560016020038436030381126117d6576117d56117aa565b5b80840192508235915067ffffffffffffffff8211156117f8576117f76117af565b5b602083019250600182023603831315611814576118136117b4565b5b509250929050565b7f4e487b7100000000000000000000000000000000000000000000000000000000600052600060045260246000fd5b600082905092915050565b7f4e487b7100000000000000000000000000000000000000000000000000000000600052604160045260246000fd5b60008190508160005260206000209050919050565b60006020601f8301049050919050565b600082821b905092915050565b6000600883026118e77fffffffffffffffffffffffffffffffffffffffffffffffffffffffffffffffff826118aa565b6118f186836118aa565b95508019841693508086168417925050509392505050565b6000819050919050565b6000819050919050565b600061193861193361192e84611909565b611913565b611909565b9050919050565b6000819050919050565b6119528361191d565b61196661195e8261193f565b8484546118b7565b825550505050565b600090565b61197b61196e565b611986818484611949565b505050565b5b818110156119aa5761199f600082611973565b60018101905061198c565b5050565b601f8211156119ef576119c081611885565b6119c98461189a565b810160208510156119d8578190505b6119ec6119e48561189a565b83018261198b565b50505b505050565b600082821c905092915050565b6000611a12600019846008026119f4565b1980831691505092915050565b6000611a2b8383611a01565b9150826002028217905092915050565b611a45838361184b565b67ffffffffffffffff811115611a5e57611a5d611856565b5b611a688254611779565b611a738282856119ae565b6000601f831160018114611aa25760008415611a90578287013590505b611a9a8582611a1f565b865550611b02565b601f198416611ab086611885565b60005b82811015611ad857848901358255600182019150602085019450602081019050611ab3565b86831015611af55784890135611af1601f891682611a01565b8355505b6001600288020188555050505b50505050505050565b611b16838383611a3b565b505050565b611b248161131b565b8114611b2f57600080fd5b50565b60008135611b3f81611b1b565b80915050919050565b60008160001b9050919050565b600073ffffffffffffffffffffffffffffffffffffffff611b7584611b48565b9350801983169250808416831791505092915050565b6000611ba6611ba1611b9c846112fb565b611913565b6112fb565b9050919050565b6000611bb882611b8b565b9050919050565b6000611bca82611bad565b9050919050565b6000819050919050565b611be482611bbf565b611bf7611bf082611bd1565b8354611b55565b8255505050565b611c078161133c565b8114611c1257600080fd5b50565b60008135611c2281611bfe565b80915050919050565b60008160a01b9050919050565b600074ff0000000000000000000000000000000000000000611c5984611c2b565b9350801983169250808416831791505092915050565b6000611c7a8261133c565b9050919050565b6000819050919050565b611c9482611c6f565b611ca7611ca082611c81565b8354611c38565b8255505050565b60008083356001602003843603038112611ccb57611cca6117aa565b5b80840192508235915067ffffffffffffffff821115611ced57611cec6117af565b5b602083019250602082023603831315611d0957611d086117b4565b5b509250929050565b6000819050919050565b600082356001606003833603038112611d3757611d366117aa565b5b80830191505092915050565b600081549050919050565b7f4e487b7100000000000000000000000000000000000000000000000000000000600052601160045260246000fd5b6000611d8882611909565b9150611d9383611909565b9250817fffffffffffffffffffffffffffffffffffffffffffffffffffffffffffffffff0483118215151615611dcc57611dcb611d4e565b5b828202905092915050565b6000819050611de7826003611d7d565b9050919050565b60008190508160005260206000209050919050565b611e337fffffffffffffffffffffffffffffffffffffffffffffffffffffffffffffffff836020036008026119f4565b815481168255505050565b611e4781611885565b611e52838254611a1f565b8083556000825550505050565b6020841060008114611eba57601f841160018114611e8857611e818685611a1f565b8355611eb4565b611e9183611885565b611ea8611e9d8761189a565b82016001830161198b565b611eb28785611e3e565b505b50611f07565b611ec382611885565b611ecc8661189a565b8101601f87168015611ee657611ee58160018403611e03565b5b611efa611ef28861189a565b84018361198b565b6001886002021785555050505b5050505050565b68010000000000000000841115611f2857611f27611856565b5b6020831060008114611f73576020851060008114611f5157611f4a8685611a1f565b8355611f6d565b8360ff1916935083611f6284611885565b556001866002020183555b50611f7d565b6001856002020182555b5050505050565b8054611f8f81611779565b80841115611fa457611fa384828486611f0e565b5b80841015611fb957611fb884828486611e5f565b5b50505050565b81811015611fdd57611fd2600082611973565b600181019050611fbf565b5050565b611fec600082611f84565b50565b6000821461200057611fff61181c565b5b61200981611fe1565b5050565b61201a6000808301611fef565b612028600060018301611fef565b612036600060028301611fef565b50565b6000821461204a5761204961181c565b5b6120538161200d565b5050565b5b818110156120765761206b600082612039565b600381019050612058565b5050565b818310156120b35761208b82611dd7565b61209484611dd7565b61209d83611dee565b8181018382016120ad8183612057565b50505050505b505050565b680100000000000000008211156120d2576120d1611856565b5b6120db81611d43565b8282556120e983828461207a565b505050565b600082905092915050565b600081016000830161210b81856117b9565b612116818386611b0b565b50505050600181016020830161212c81856117b9565b612137818386611b0b565b50505050600281016040830161214d81856117b9565b612158818386611b0b565b505050505050565b811561216f5761216e61181c565b5b61217983826120f9565b505050565b61218883836120ee565b61219281836120b8565b61219b83611d11565b6121a483611dee565b6000805b848110156121dd576121ba8488611d1b565b6121c5818486612160565b602085019450600384019350506001810190506121a8565b5050505050505050565b6121f283838361217e565b505050565b600081016000830161220981856117b9565b612214818386611b0b565b5050505060018101602083018061222a81611b32565b90506122368184611bdb565b50505060018101604083018061224b81611c15565b90506122578184611c8b565b505050600281016060830161226c8185611cae565b6122778183866121e7565b50505050600381016080830161228d8185611cae565b6122988183866121e7565b505050505050565b6122aa82826121f7565b5050565b7f4e487b7100000000000000000000000000000000000000000000000000000000600052603260045260246000fd5b600081546122ea81611779565b6122f481866116f2565b9450600182166000811461230f576001811461232057612353565b60ff19831686528186019350612353565b61232985611885565b60005b8381101561234b5781548189015260018201915060208101905061232c565b838801955050505b50505092915050565b600061236882846122dd565b915081905092915050565b600061237e82611909565b91507fffffffffffffffffffffffffffffffffffffffffffffffffffffffffffffffff82036123b0576123af611d4e565b5b60018201905091905056fea26469706673582212205f566679ac5a7c96e4784bc8b7cf9c28f8e0e951619958b3d11cd1ba7653cea964736f6c634300080d0033",
  "immutableReferences": {},
  "source": "// SPDX-License-Identifier: GPL-3.0\npragma solidity >=0.4.16 <0.9.0;\n\nstruct PortaloAddress {\n  string name;\n  string entity;\n  string portaloAddress;\n}\n\nstruct Profile {\n  string profileAlias;\n  address owner;\n  bool exists;\n  PortaloAddress[] cryptoAddresses;\n  PortaloAddress[] fiatAddresses;\n}\n\ncontract PortaloContract {\n  mapping(address => string[]) addressToProfileAliases;\n  mapping(string => Profile) aliasToProfile;\n\n  function addProfile(Profile calldata profile) public {\n    require(!aliasToProfile[profile.profileAlias].exists);\n\n    aliasToProfile[profile.profileAlias] = profile;\n    aliasToProfile[profile.profileAlias].owner = msg.sender;\n    aliasToProfile[profile.profileAlias].exists = true;\n\n    addressToProfileAliases[msg.sender].push(profile.profileAlias);\n  }\n\n  function updateProfile(Profile calldata profile) public {\n    require(aliasToProfile[profile.profileAlias].exists);\n    require(aliasToProfile[profile.profileAlias].owner == msg.sender);\n\n    aliasToProfile[profile.profileAlias] = profile;\n    aliasToProfile[profile.profileAlias].exists = true;\n  }\n\n  function getAddressProfiles() public view returns (Profile[] memory) {\n    require(addressToProfileAliases[msg.sender].length > 0);\n\n    Profile[] memory profiles = new Profile[](\n      addressToProfileAliases[msg.sender].length\n    );\n\n    for (uint i = 0; i < addressToProfileAliases[msg.sender].length; i++) {\n      profiles[i] = aliasToProfile[addressToProfileAliases[msg.sender][i]];\n    }\n\n    return profiles;\n  }\n\n  function getProfile(\n    string calldata profileAlias\n  ) public view returns (Profile memory) {\n    require(aliasToProfile[profileAlias].exists);\n\n    return aliasToProfile[profileAlias];\n  }\n}\n",
  "sourcePath": "/home/jarancibia/Documents/Projects/NeoPower/portalo/contracts/contracts/PortaloContract.sol",
  "compiler": {
    "name": "solc",
    "version": "0.8.13+commit.abaa5c0e.Emscripten.clang"
  },
  "schemaVersion": "3.4.15",
  "updatedAt": "2023-09-04T16:31:06.148Z",
  "networkType": "ethereum",
  "devdoc": {
    "kind": "dev",
    "methods": {},
    "version": 1
  },
  "userdoc": {
    "kind": "user",
    "methods": {},
    "version": 1
  }
}